{
  "contractName": "Marketplace",
  "abi": [
    {
      "constant": true,
      "inputs": [],
      "name": "name",
      "outputs": [
        {
          "name": "",
          "type": "string"
        }
      ],
      "payable": false,
      "stateMutability": "view",
      "type": "function",
      "signature": "0x06fdde03"
    },
    {
      "constant": true,
      "inputs": [
        {
          "name": "",
          "type": "uint256"
        }
      ],
      "name": "products",
      "outputs": [
        {
          "name": "id",
          "type": "uint256"
        },
        {
          "name": "name",
          "type": "string"
        },
        {
          "name": "price",
          "type": "uint256"
        },
        {
          "name": "shippingPrice",
          "type": "uint256"
        },
        {
          "name": "owner",
          "type": "address"
        },
        {
          "name": "buyer",
          "type": "address"
        },
        {
          "name": "shipper",
          "type": "address"
        },
        {
          "name": "state",
          "type": "uint8"
        }
      ],
      "payable": false,
      "stateMutability": "view",
      "type": "function",
      "signature": "0x7acc0b20"
    },
    {
      "constant": true,
      "inputs": [],
      "name": "productCount",
      "outputs": [
        {
          "name": "",
          "type": "uint256"
        }
      ],
      "payable": false,
      "stateMutability": "view",
      "type": "function",
      "signature": "0xe0f6ef87"
    },
    {
      "inputs": [],
      "payable": false,
      "stateMutability": "nonpayable",
      "type": "constructor",
      "signature": "constructor"
    },
    {
      "anonymous": false,
      "inputs": [
        {
          "indexed": false,
          "name": "id",
          "type": "uint256"
        },
        {
          "indexed": false,
          "name": "name",
          "type": "string"
        },
        {
          "indexed": false,
          "name": "price",
          "type": "uint256"
        },
        {
          "indexed": false,
          "name": "owner",
          "type": "address"
        },
        {
          "indexed": false,
          "name": "state",
          "type": "uint8"
        }
      ],
      "name": "ProductCreated",
      "type": "event",
      "signature": "0x4da7c3248516847ad3a6cc01d258d617fff66cfef1e432c4e18c776eb2559e7e"
    },
    {
      "anonymous": false,
      "inputs": [
        {
          "indexed": false,
          "name": "id",
          "type": "uint256"
        },
        {
          "indexed": false,
          "name": "name",
          "type": "string"
        },
        {
          "indexed": false,
          "name": "price",
          "type": "uint256"
        },
        {
          "indexed": false,
          "name": "shipper",
          "type": "address"
        },
        {
          "indexed": false,
          "name": "shippingPrice",
          "type": "uint256"
        },
        {
          "indexed": false,
          "name": "owner",
          "type": "address"
        },
        {
          "indexed": false,
          "name": "buyer",
          "type": "address"
        },
        {
          "indexed": false,
          "name": "state",
          "type": "uint8"
        }
      ],
      "name": "ProductPurchased",
      "type": "event",
      "signature": "0xdf0295a16dc865a95f26bd31ba6a3d36aa043e40292670c608fdb04e148913b3"
    },
    {
      "anonymous": false,
      "inputs": [
        {
          "indexed": false,
          "name": "id",
          "type": "uint256"
        },
        {
          "indexed": false,
          "name": "name",
          "type": "string"
        },
        {
          "indexed": false,
          "name": "price",
          "type": "uint256"
        },
        {
          "indexed": false,
          "name": "shipper",
          "type": "address"
        },
        {
          "indexed": false,
          "name": "shippingPrice",
          "type": "uint256"
        },
        {
          "indexed": false,
          "name": "owner",
          "type": "address"
        },
        {
          "indexed": false,
          "name": "buyer",
          "type": "address"
        },
        {
          "indexed": false,
          "name": "state",
          "type": "uint8"
        }
      ],
      "name": "ProductShipped",
      "type": "event",
      "signature": "0x19d2acac02ab7619c51fc71bec83e4bc817e78cb4b7131d5fa4704e6aed60619"
    },
    {
      "anonymous": false,
      "inputs": [
        {
          "indexed": false,
          "name": "id",
          "type": "uint256"
        },
        {
          "indexed": false,
          "name": "name",
          "type": "string"
        },
        {
          "indexed": false,
          "name": "price",
          "type": "uint256"
        },
        {
          "indexed": false,
          "name": "shipper",
          "type": "address"
        },
        {
          "indexed": false,
          "name": "shippingPrice",
          "type": "uint256"
        },
        {
          "indexed": false,
          "name": "owner",
          "type": "address"
        },
        {
          "indexed": false,
          "name": "buyer",
          "type": "address"
        },
        {
          "indexed": false,
          "name": "state",
          "type": "uint8"
        }
      ],
      "name": "ProductDelivered",
      "type": "event",
      "signature": "0x33f90e44dbf1037734d6984384c4d872045646537d81af76919bf35a020c9d66"
    },
    {
      "constant": false,
      "inputs": [
        {
          "name": "_name",
          "type": "string"
        },
        {
          "name": "_price",
          "type": "uint256"
        }
      ],
      "name": "createProduct",
      "outputs": [],
      "payable": false,
      "stateMutability": "nonpayable",
      "type": "function",
      "signature": "0xe9300c6c"
    },
    {
      "constant": false,
      "inputs": [
        {
          "name": "_id",
          "type": "uint256"
        },
        {
          "name": "_shipper",
          "type": "address"
        },
        {
          "name": "shippingCost",
          "type": "uint256"
        }
      ],
      "name": "purchaseProduct",
      "outputs": [],
      "payable": true,
      "stateMutability": "payable",
      "type": "function",
      "signature": "0x51f065de"
    },
    {
      "constant": false,
      "inputs": [
        {
          "name": "_id",
          "type": "uint256"
        }
      ],
      "name": "shipProduct",
      "outputs": [],
      "payable": false,
      "stateMutability": "nonpayable",
      "type": "function",
      "signature": "0x2927d1d9"
    },
    {
      "constant": false,
      "inputs": [
        {
          "name": "_id",
          "type": "uint256"
        }
      ],
      "name": "markProductAsDelivered",
      "outputs": [],
      "payable": false,
      "stateMutability": "nonpayable",
      "type": "function",
      "signature": "0xf197b6ba"
    }
  ],
  "bytecode": "0x608060405260006001553480156200001657600080fd5b506040805190810160405280600f81526020017f4d61726b657420436f6e7472616374000000000000000000000000000000000081525060009080519060200190620000649291906200006b565b506200011a565b828054600181600116156101000203166002900490600052602060002090601f016020900481019282601f10620000ae57805160ff1916838001178555620000df565b82800160010185558215620000df579182015b82811115620000de578251825591602001919060010190620000c1565b5b509050620000ee9190620000f2565b5090565b6200011791905b8082111562000113576000816000905550600101620000f9565b5090565b90565b6120d1806200012a6000396000f3fe608060405260043610610083576000357c0100000000000000000000000000000000000000000000000000000000900463ffffffff16806306fdde03146100885780632927d1d91461011857806351f065de146101535780637acc0b20146101ab578063e0f6ef8714610322578063e9300c6c1461034d578063f197b6ba1461041f575b600080fd5b34801561009457600080fd5b5061009d61045a565b6040518080602001828103825283818151815260200191508051906020019080838360005b838110156100dd5780820151818401526020810190506100c2565b50505050905090810190601f16801561010a5780820380516001836020036101000a031916815260200191505b509250505060405180910390f35b34801561012457600080fd5b506101516004803603602081101561013b57600080fd5b81019080803590602001909291905050506104f8565b005b6101a96004803603606081101561016957600080fd5b8101908080359060200190929190803573ffffffffffffffffffffffffffffffffffffffff16906020019092919080359060200190929190505050610a3b565b005b3480156101b757600080fd5b506101e4600480360360208110156101ce57600080fd5b81019080803590602001909291905050506112cd565b60405180898152602001806020018881526020018781526020018673ffffffffffffffffffffffffffffffffffffffff1673ffffffffffffffffffffffffffffffffffffffff1681526020018573ffffffffffffffffffffffffffffffffffffffff1673ffffffffffffffffffffffffffffffffffffffff1681526020018473ffffffffffffffffffffffffffffffffffffffff1673ffffffffffffffffffffffffffffffffffffffff1681526020018360038111156102a057fe5b60ff168152602001828103825289818151815260200191508051906020019080838360005b838110156102e05780820151818401526020810190506102c5565b50505050905090810190601f16801561030d5780820380516001836020036101000a031916815260200191505b50995050505050505050505060405180910390f35b34801561032e57600080fd5b5061033761141a565b6040518082815260200191505060405180910390f35b34801561035957600080fd5b5061041d6004803603604081101561037057600080fd5b810190808035906020019064010000000081111561038d57600080fd5b82018360208201111561039f57600080fd5b803590602001918460018302840111640100000000831117156103c157600080fd5b91908080601f016020809104026020016040519081016040528093929190818152602001838380828437600081840152601f19601f82011690508083019250505050505050919291929080359060200190929190505050611420565b005b34801561042b57600080fd5b506104586004803603602081101561044257600080fd5b8101908080359060200190929190505050611803565b005b60008054600181600116156101000203166002900480601f0160208091040260200160405190810160405280929190818152602001828054600181600116156101000203166002900480156104f05780601f106104c5576101008083540402835291602001916104f0565b820191906000526020600020905b8154815290600101906020018083116104d357829003601f168201915b505050505081565b80600060026000838152602001908152602001600020600001541180156105375750600154600260008381526020019081526020016000206000015411155b15156105ab576040517f08c379a00000000000000000000000000000000000000000000000000000000081526004018080602001828103825260128152602001807f496e76616c69642070726f64756374206964000000000000000000000000000081525060200191505060405180910390fd5b81600160006002600084815260200190815260200160002090508160038111156105d157fe5b8160060160149054906101000a900460ff1660038111156105ee57fe5b141515610689576040517f08c379a00000000000000000000000000000000000000000000000000000000081526004018080602001828103825260248152602001807f50726f6475637420646f6573206e6f74206d656574207265717569726564207381526020017f746174650000000000000000000000000000000000000000000000000000000081525060400191505060405180910390fd5b8460006002600083815260200190815260200160002090508060060160009054906101000a900473ffffffffffffffffffffffffffffffffffffffff1673ffffffffffffffffffffffffffffffffffffffff163373ffffffffffffffffffffffffffffffffffffffff1614151561078e576040517f08c379a00000000000000000000000000000000000000000000000000000000081526004018080602001828103825260218152602001807f4f6e6c7920736869707065722063616e2073686970207468652070726f64756381526020017f740000000000000000000000000000000000000000000000000000000000000081525060400191505060405180910390fd5b600060026000898152602001908152602001600020905060006003905081600301548160003373ffffffffffffffffffffffffffffffffffffffff1673ffffffffffffffffffffffffffffffffffffffff1681526020019081526020016000206000828254019250508190555060028260060160146101000a81548160ff0219169083600381111561081c57fe5b02179055507f19d2acac02ab7619c51fc71bec83e4bc817e78cb4b7131d5fa4704e6aed6061982600001548360010184600201548560060160009054906101000a900473ffffffffffffffffffffffffffffffffffffffff1686600301548760040160009054906101000a900473ffffffffffffffffffffffffffffffffffffffff168860050160009054906101000a900473ffffffffffffffffffffffffffffffffffffffff168960060160149054906101000a900460ff1660405180898152602001806020018881526020018773ffffffffffffffffffffffffffffffffffffffff1673ffffffffffffffffffffffffffffffffffffffff1681526020018681526020018573ffffffffffffffffffffffffffffffffffffffff1673ffffffffffffffffffffffffffffffffffffffff1681526020018473ffffffffffffffffffffffffffffffffffffffff1673ffffffffffffffffffffffffffffffffffffffff16815260200183600381111561099257fe5b60ff168152602001828103825289818154600181600116156101000203166002900481526020019150805460018160011615610100020316600290048015610a1b5780601f106109f057610100808354040283529160200191610a1b565b820191906000526020600020905b8154815290600101906020018083116109fe57829003601f168201915b5050995050505050505050505060405180910390a1505050505050505050565b8260006002600083815260200190815260200160002060000154118015610a7a5750600154600260008381526020019081526020016000206000015411155b1515610aee576040517f08c379a00000000000000000000000000000000000000000000000000000000081526004018080602001828103825260128152602001807f496e76616c69642070726f64756374206964000000000000000000000000000081525060200191505060405180910390fd5b83826000600260008481526020019081526020016000209050806002015434118015610b1f57508134038160020154145b1515610b93576040517f08c379a00000000000000000000000000000000000000000000000000000000081526004018080602001828103825260128152602001807f496e73756666696369656e742066756e6473000000000000000000000000000081525060200191505060405180910390fd5b3482108015610ba757508060020154340382145b1515610c1b576040517f08c379a00000000000000000000000000000000000000000000000000000000081526004018080602001828103825260158152602001807f496e76616c6964207368697070696e6720636f7374000000000000000000000081525060200191505060405180910390fd5b8660016003811115610c2957fe5b6002600083815260200190815260200160002060060160149054906101000a900460ff166003811115610c5857fe5b14151515610cf4576040517f08c379a00000000000000000000000000000000000000000000000000000000081526004018080602001828103825260228152602001807f50726f6475637420686173206265656e20616c7265616479207075726368617381526020017f656400000000000000000000000000000000000000000000000000000000000081525060400191505060405180910390fd5b6002600089815260200190815260200160002060040160009054906101000a900473ffffffffffffffffffffffffffffffffffffffff163373ffffffffffffffffffffffffffffffffffffffff168173ffffffffffffffffffffffffffffffffffffffff1614151515610df5576040517f08c379a00000000000000000000000000000000000000000000000000000000081526004018080602001828103825260238152602001807f427579696e6720796f7572206f776e20676f6f64732069732070726f6869626981526020017f746564000000000000000000000000000000000000000000000000000000000081525060400191505060405180910390fd5b88883373ffffffffffffffffffffffffffffffffffffffff168173ffffffffffffffffffffffffffffffffffffffff1614151515610e9b576040517f08c379a00000000000000000000000000000000000000000000000000000000081526004018080602001828103825260118152602001807f42757965722063616e6e6f74207368697000000000000000000000000000000081525060200191505060405180910390fd5b6002600083815260200190815260200160002060040160009054906101000a900473ffffffffffffffffffffffffffffffffffffffff1673ffffffffffffffffffffffffffffffffffffffff168173ffffffffffffffffffffffffffffffffffffffff1614151515610f75576040517f08c379a00000000000000000000000000000000000000000000000000000000081526004018080602001828103825260128152602001807f53656c6c65722063616e6e6f742073686970000000000000000000000000000081525060200191505060405180910390fd5b6000600260008d8152602001908152602001600020905060018160060160146101000a81548160ff02191690836003811115610fad57fe5b0217905550898160030181905550338160050160006101000a81548173ffffffffffffffffffffffffffffffffffffffff021916908373ffffffffffffffffffffffffffffffffffffffff16021790555060003490506000600390508b82038160008560040160009054906101000a900473ffffffffffffffffffffffffffffffffffffffff1673ffffffffffffffffffffffffffffffffffffffff1673ffffffffffffffffffffffffffffffffffffffff168152602001908152602001600020600082825401925050819055508c8360060160006101000a81548173ffffffffffffffffffffffffffffffffffffffff021916908373ffffffffffffffffffffffffffffffffffffffff1602179055507fdf0295a16dc865a95f26bd31ba6a3d36aa043e40292670c608fdb04e148913b383600001548460010185600201548660060160009054906101000a900473ffffffffffffffffffffffffffffffffffffffff1687600301548860040160009054906101000a900473ffffffffffffffffffffffffffffffffffffffff168960050160009054906101000a900473ffffffffffffffffffffffffffffffffffffffff16600160405180898152602001806020018881526020018773ffffffffffffffffffffffffffffffffffffffff1673ffffffffffffffffffffffffffffffffffffffff1681526020018681526020018573ffffffffffffffffffffffffffffffffffffffff1673ffffffffffffffffffffffffffffffffffffffff1681526020018473ffffffffffffffffffffffffffffffffffffffff1673ffffffffffffffffffffffffffffffffffffffff16815260200183600381111561121f57fe5b60ff1681526020018281038252898181546001816001161561010002031660029004815260200191508054600181600116156101000203166002900480156112a85780601f1061127d576101008083540402835291602001916112a8565b820191906000526020600020905b81548152906001019060200180831161128b57829003601f168201915b5050995050505050505050505060405180910390a15050505050505050505050505050565b6002602052806000526040600020600091509050806000015490806001018054600181600116156101000203166002900480601f01602080910402602001604051908101604052809291908181526020018280546001816001161561010002031660029004801561137f5780601f106113545761010080835404028352916020019161137f565b820191906000526020600020905b81548152906001019060200180831161136257829003601f168201915b5050505050908060020154908060030154908060040160009054906101000a900473ffffffffffffffffffffffffffffffffffffffff16908060050160009054906101000a900473ffffffffffffffffffffffffffffffffffffffff16908060060160009054906101000a900473ffffffffffffffffffffffffffffffffffffffff16908060060160149054906101000a900460ff16905088565b60015481565b816000815111151561149a576040517f08c379a000000000000000000000000000000000000000000000000000000000815260040180806020018281038252600c8152602001807f496e76616c6964206e616d65000000000000000000000000000000000000000081525060200191505060405180910390fd5b81600081111515611513576040517f08c379a00000000000000000000000000000000000000000000000000000000081526004018080602001828103825260108152602001807f4e6f7420656e6f7567682066756e64730000000000000000000000000000000081525060200191505060405180910390fd5b600160008154809291906001019190505550610100604051908101604052806001548152602001858152602001848152602001600081526020013373ffffffffffffffffffffffffffffffffffffffff168152602001600073ffffffffffffffffffffffffffffffffffffffff168152602001600073ffffffffffffffffffffffffffffffffffffffff168152602001600060038111156115b057fe5b8152506002600060015481526020019081526020016000206000820151816000015560208201518160010190805190602001906115ee929190612000565b50604082015181600201556060820151816003015560808201518160040160006101000a81548173ffffffffffffffffffffffffffffffffffffffff021916908373ffffffffffffffffffffffffffffffffffffffff16021790555060a08201518160050160006101000a81548173ffffffffffffffffffffffffffffffffffffffff021916908373ffffffffffffffffffffffffffffffffffffffff16021790555060c08201518160060160006101000a81548173ffffffffffffffffffffffffffffffffffffffff021916908373ffffffffffffffffffffffffffffffffffffffff16021790555060e08201518160060160146101000a81548160ff021916908360038111156116fc57fe5b02179055509050507f4da7c3248516847ad3a6cc01d258d617fff66cfef1e432c4e18c776eb2559e7e600154858533600060405180868152602001806020018581526020018473ffffffffffffffffffffffffffffffffffffffff1673ffffffffffffffffffffffffffffffffffffffff16815260200183600381111561177f57fe5b60ff168152602001828103825286818151815260200191508051906020019080838360005b838110156117bf5780820151818401526020810190506117a4565b50505050905090810190601f1680156117ec5780820380516001836020036101000a031916815260200191505b50965050505050505060405180910390a150505050565b80600060026000838152602001908152602001600020600001541180156118425750600154600260008381526020019081526020016000206000015411155b15156118b6576040517f08c379a00000000000000000000000000000000000000000000000000000000081526004018080602001828103825260128152602001807f496e76616c69642070726f64756374206964000000000000000000000000000081525060200191505060405180910390fd5b8160006002600083815260200190815260200160002090508060050160009054906101000a900473ffffffffffffffffffffffffffffffffffffffff1673ffffffffffffffffffffffffffffffffffffffff163373ffffffffffffffffffffffffffffffffffffffff16141515611995576040517f08c379a00000000000000000000000000000000000000000000000000000000081526004018080602001828103825260208152602001807f4f6e6c792062757965722063616e20706572666f726d2074686973207461736b81525060200191505060405180910390fd5b600060026000868152602001908152602001600020905060006003905081600201548160008460040160009054906101000a900473ffffffffffffffffffffffffffffffffffffffff1673ffffffffffffffffffffffffffffffffffffffff1673ffffffffffffffffffffffffffffffffffffffff1681526020019081526020016000205410151515611ab6576040517f08c379a00000000000000000000000000000000000000000000000000000000081526004018080602001828103825260348152602001807f54686572652077617320612070726f626c656d2063616c63756c6174696e672081526020017f707269636520666f72207468652073656c6c657200000000000000000000000081525060400191505060405180910390fd5b81600301548160008460060160009054906101000a900473ffffffffffffffffffffffffffffffffffffffff1673ffffffffffffffffffffffffffffffffffffffff1673ffffffffffffffffffffffffffffffffffffffff1681526020019081526020016000205410151515611bba576040517f08c379a00000000000000000000000000000000000000000000000000000000081526004018080602001828103825260358152602001807f54686572652077617320612070726f626c656d2063616c63756c6174696e672081526020017f707269636520666f72207468652073686970706572000000000000000000000081525060400191505060405180910390fd5b8160040160009054906101000a900473ffffffffffffffffffffffffffffffffffffffff1673ffffffffffffffffffffffffffffffffffffffff166108fc83600201549081150290604051600060405180830381858888f19350505050158015611c28573d6000803e3d6000fd5b508160060160009054906101000a900473ffffffffffffffffffffffffffffffffffffffff1673ffffffffffffffffffffffffffffffffffffffff166108fc83600301549081150290604051600060405180830381858888f19350505050158015611c97573d6000803e3d6000fd5b5081600201548160008460040160009054906101000a900473ffffffffffffffffffffffffffffffffffffffff1673ffffffffffffffffffffffffffffffffffffffff1673ffffffffffffffffffffffffffffffffffffffff1681526020019081526020016000206000828254039250508190555081600301548160008460060160009054906101000a900473ffffffffffffffffffffffffffffffffffffffff1673ffffffffffffffffffffffffffffffffffffffff1673ffffffffffffffffffffffffffffffffffffffff16815260200190815260200160002060008282540392505081905550338260040160006101000a81548173ffffffffffffffffffffffffffffffffffffffff021916908373ffffffffffffffffffffffffffffffffffffffff16021790555060038260060160146101000a81548160ff02191690836003811115611de457fe5b02179055507f33f90e44dbf1037734d6984384c4d872045646537d81af76919bf35a020c9d6682600001548360010184600201548560060160009054906101000a900473ffffffffffffffffffffffffffffffffffffffff1686600301548760040160009054906101000a900473ffffffffffffffffffffffffffffffffffffffff168860050160009054906101000a900473ffffffffffffffffffffffffffffffffffffffff168960060160149054906101000a900460ff1660405180898152602001806020018881526020018773ffffffffffffffffffffffffffffffffffffffff1673ffffffffffffffffffffffffffffffffffffffff1681526020018681526020018573ffffffffffffffffffffffffffffffffffffffff1673ffffffffffffffffffffffffffffffffffffffff1681526020018473ffffffffffffffffffffffffffffffffffffffff1673ffffffffffffffffffffffffffffffffffffffff168152602001836003811115611f5a57fe5b60ff168152602001828103825289818154600181600116156101000203166002900481526020019150805460018160011615610100020316600290048015611fe35780601f10611fb857610100808354040283529160200191611fe3565b820191906000526020600020905b815481529060010190602001808311611fc657829003601f168201915b5050995050505050505050505060405180910390a1505050505050565b828054600181600116156101000203166002900490600052602060002090601f016020900481019282601f1061204157805160ff191683800117855561206f565b8280016001018555821561206f579182015b8281111561206e578251825591602001919060010190612053565b5b50905061207c9190612080565b5090565b6120a291905b8082111561209e576000816000905550600101612086565b5090565b9056fea165627a7a72305820477216421673770be22eb738eb75f14a15e993bdaca2dc02d8d02db1ed8d87730029",
  "source": "pragma solidity ^0.5.0;\r\n\r\ncontract Marketplace {\r\n    string public name;\r\n    uint public productCount = 0;\r\n    mapping(uint => Product) public products;\r\n    enum ProductState {InStock, Purchased, Shipped, Delivered}\r\n    mapping(address => uint) balance;\r\n\r\n    struct Product {\r\n        uint id;\r\n        string name;\r\n        uint price;\r\n        uint shippingPrice;\r\n        address payable owner;\r\n        address payable buyer;\r\n        address payable shipper;\r\n        ProductState state;\r\n    }\r\n\r\n    constructor() public {\r\n        name = \"Market Contract\";\r\n    }\r\n\r\n    event ProductCreated(\r\n        uint id,\r\n        string name,\r\n        uint price,\r\n        address payable owner,\r\n        ProductState state\r\n    );\r\n\r\n    event ProductPurchased(\r\n        uint id,\r\n        string name,\r\n        uint price,\r\n        address payable shipper,\r\n        uint shippingPrice,\r\n        address payable owner,\r\n        address payable buyer,\r\n        ProductState state\r\n    );\r\n\r\n    event ProductShipped(\r\n        uint id,\r\n        string name,\r\n        uint price,\r\n        address payable shipper,\r\n        uint shippingPrice,\r\n        address payable owner,\r\n        address payable buyer,\r\n        ProductState state\r\n    );\r\n\r\n    event ProductDelivered (\r\n        uint id,\r\n        string name,\r\n        uint price,\r\n        address payable shipper,\r\n        uint shippingPrice,\r\n        address payable owner,\r\n        address payable buyer,\r\n        ProductState state\r\n    );\r\n\r\n    modifier hasName(string memory _name) {\r\n        // Require a valid name\r\n        require(bytes(_name).length > 0, \"Invalid name\");\r\n        _;\r\n    }\r\n    modifier hasPrice(uint _price) {\r\n        // Require a valid name\r\n        require(_price > 0, \"Not enough funds\");\r\n        _;\r\n    }\r\n\r\n    function createProduct(string memory _name, uint _price)\r\n        public\r\n        hasName(_name)\r\n        hasPrice(_price)\r\n    {\r\n\r\n        // Increment product count\r\n        productCount++;\r\n\r\n        // Create the product\r\n        products[productCount] = Product(productCount, _name, _price, 0, msg.sender, address(0), address(0), ProductState.InStock);\r\n        // Trigger an event\r\n        emit ProductCreated(productCount, _name, _price, msg.sender, ProductState.InStock);\r\n    }\r\n\r\n    modifier IdExists(uint _id) {\r\n        // Make sure the product has a valid id\r\n        require(products[_id].id > 0 && products[_id].id <= productCount, \"Invalid product id\");\r\n        _;\r\n    }\r\n    modifier EnoughMoneyToBuy(uint _id, uint shippingCost) {\r\n        Product storage _product = products[_id];\r\n\r\n        // Require that there is enough Ether in the transaction\r\n        require(msg.value > _product.price && _product.price == (msg.value - shippingCost), \"Insufficient funds\");\r\n        // Require that shipping cost wouldn't be 0\r\n        require(shippingCost < msg.value && shippingCost == (msg.value - _product.price), \"Invalid shipping cost\");\r\n        _;\r\n    }\r\n    modifier ProductIsInStock(uint _id) {\r\n        // Require that the product has not been purchased already\r\n        require(products[_id].state != ProductState.Purchased, \"Product has been already purchased\");\r\n        _;\r\n    }\r\n    modifier isNotSeller(address payable seller) {\r\n        // Require that the buyer is not the seller\r\n        require(seller != msg.sender, \"Buying your own goods is prohibited\");\r\n        _;\r\n    }\r\n    modifier isValidShipper(uint _id, address payable _shipper) {\r\n        // Require that the buyer is not the shipper\r\n        require(_shipper != msg.sender, \"Buyer cannot ship\");\r\n        // Require that the seller is not the shipper\r\n        require(_shipper != products[_id].owner, \"Seller cannot ship\");\r\n        _;\r\n    }\r\n\r\n    function purchaseProduct(uint _id, address payable _shipper, uint shippingCost)\r\n        public\r\n        payable\r\n        IdExists(_id)\r\n        EnoughMoneyToBuy(_id, shippingCost)\r\n        ProductIsInStock(_id)\r\n        isNotSeller(products[_id].owner)\r\n        isValidShipper(_id, _shipper)\r\n    {\r\n\r\n        // Fetch the product\r\n        Product storage _product = products[_id];\r\n\r\n        // Change product's state\r\n        _product.state = ProductState.Purchased;\r\n        // Change product's shipping cost\r\n        _product.shippingPrice = shippingCost;\r\n        // Add Ether to the contract\r\n        _product.buyer = msg.sender;\r\n\r\n        uint value = msg.value;\r\n        mapping(address => uint) storage _balance = balance;\r\n        _balance[_product.owner] += (value - shippingCost);\r\n\r\n        // Add shipper to the contract\r\n        _product.shipper = _shipper;\r\n\r\n        // Trigger an event\r\n        emit ProductPurchased(_product.id, _product.name, _product.price, _product.shipper, _product.shippingPrice, _product.owner, _product.buyer, ProductState.Purchased);\r\n    }\r\n\r\n    modifier isShipper(uint _id) {\r\n        Product storage _product = products[_id];\r\n\r\n        require(msg.sender == _product.shipper, 'Only shipper can ship the product');\r\n        _;\r\n    }\r\n\r\n    modifier ProductIsInState(uint _id, ProductState _state) {\r\n        Product storage _product = products[_id];\r\n\r\n        require(_product.state == _state, 'Product does not meet required state');\r\n        _;\r\n    }\r\n\r\n    function shipProduct(uint _id)\r\n        public\r\n        IdExists(_id)\r\n        ProductIsInState(_id, ProductState.Purchased)\r\n        isShipper(_id)\r\n    {\r\n\r\n        // Fetch the product\r\n        Product storage _product = products[_id];\r\n\r\n        // Mark shipper's ether as salary\r\n        mapping(address => uint) storage _balance = balance;\r\n        _balance[msg.sender] += _product.shippingPrice;\r\n        // Mark product as shipped;\r\n        _product.state = ProductState.Shipped;\r\n\r\n        //Trigger an event\r\n        emit ProductShipped(_product.id, _product.name, _product.price, _product.shipper, _product.shippingPrice, _product.owner, _product.buyer, _product.state);\r\n    }\r\n\r\n    modifier IsBuyer(uint _id) {\r\n        Product storage _product = products[_id];\r\n\r\n        require(msg.sender == _product.buyer, \"Only buyer can perform this task\");\r\n        _;\r\n    }\r\n\r\n    function markProductAsDelivered(uint _id)\r\n        public\r\n        IdExists(_id)\r\n        IsBuyer(_id)\r\n    {\r\n        Product storage _product = products[_id];\r\n\r\n        mapping(address => uint) storage _balance = balance;\r\n        // Check if there's enough balance\r\n        require(_balance[_product.owner] >= _product.price, \"There was a problem calculating price for the seller\");\r\n        require(_balance[_product.shipper] >= _product.shippingPrice, \"There was a problem calculating price for the shipper\");\r\n        // Pay the seller and shipper\r\n        _product.owner.transfer(_product.price);\r\n        _product.shipper.transfer(_product.shippingPrice);\r\n        _balance[_product.owner] -= _product.price;\r\n        _balance[_product.shipper] -= _product.shippingPrice;\r\n\r\n        // Transfer ownership to the buyer\r\n        _product.owner = msg.sender;\r\n        // Mark as purchased\r\n        _product.state = ProductState.Delivered;\r\n\r\n        emit ProductDelivered(_product.id, _product.name, _product.price, _product.shipper, _product.shippingPrice, _product.owner, _product.buyer, _product.state);\r\n    }\r\n}",
  "sourcePath": "C:/Users/zygim/Documents/marketplace/Smart-contract-market/src/contracts/Marketplace.sol",
  "compiler": {
    "name": "solc",
    "version": "0.5.0+commit.1d4f565a.Emscripten.clang"
  },
  "schemaVersion": "3.0.2",
  "updatedAt": "2020-01-14T17:39:18.939Z",
  "devdoc": {
    "methods": {}
  },
  "userdoc": {
    "methods": {}
  }
}